:020000040000FA
:100000000C945D000C9485000C9485000C94850084
:100010000C9485000C9485000C9485000C9485004C
:100020000C9485000C9485000C9485000C9472044B
:100030000C9485000C9485000C9485000C9485002C
:100040000C94D0030C9485000C9440040C941A0476
:100050000C9485000C9485000C9485000C9485000C
:100060000C9485000C94850000000008000201003B
:100070000003040700000000000000000000000072
:10008000250028002B0000000000240027002A0083
:10009000040404040404040402020202020203032E
:1000A0000303030301020408102040800102040836
:1000B0001020010204081020490511241FBECFEFB3
:1000C000D8E0DEBFCDBF11E0A0E0B1E0EAE9F1E1A8
:1000D00002C005900D92AC38B107D9F722E0ACE828
:1000E000B1E001C01D92A936B207E1F710E0CDE5FD
:1000F000D0E004C02197FE010E94C508CC35D1078D
:10010000C9F70E9481050C94CB080C94000090E084
:10011000FC01EC55FF4F249180579F4FFC018491C7
:10012000882399F090E0880F991FFC01EA57FF4F50
:10013000A591B491FC01E458FF4F859194918FB73C
:10014000F894EC91E22BEC938FBF089590E0FC01C2
:10015000E859FF4F2491FC01EC55FF4F3491FC010D
:10016000E057FF4FE491EE23C9F0222339F023300A
:1001700001F1A8F4213019F1223029F1F0E0EE0F5D
:10018000FF1FE458FF4FA591B4918FB7F894EC91FD
:10019000611126C030953E233C938FBF08952730D0
:1001A000A9F02830C9F0243049F7809180008F7D74
:1001B00003C0809180008F7780938000DFCF84B56B
:1001C0008F7784BDDBCF84B58F7DFBCF8091B0006E
:1001D0008F778093B000D2CF8091B0008F7DF9CF20
:1001E0003E2BDACF3FB7F8948091BF019091C001C8
:1001F000A091C101B091C20126B5A89B05C02F3FB7
:1002000019F00196A11DB11D3FBFBA2FA92F982F3C
:100210008827BC01CD01620F711D811D911D42E037
:10022000660F771F881F991F4A95D1F708958F92FF
:100230009F92AF92BF92CF92DF92EF92FF920E9475
:10024000F2004B015C018AE0C82ED12CE12CF12C8C
:100250000E94F200681979098A099B09683E734077
:1002600081059105A8F321E0C21AD108E108F1083F
:1002700088EE880E83E0981EA11CB11CC114D10425
:10028000E104F10429F7FF90EF90DF90CF90BF9049
:10029000AF909F908F900895AF92BF92CF92DF92D0
:1002A000EF92FF920F931F93CF93DF936C017B012B
:1002B0008B01040F151FEB015E01AE18BF08C017BC
:1002C000D10759F06991D601ED91FC910190F0812F
:1002D000E02DC6010995892B79F7C501DF91CF91F2
:1002E0001F910F91FF90EF90DF90CF90BF90AF9054
:1002F0000895FC01538D448D252F30E0842F90E02C
:10030000821B930B541710F0CF9608950197089510
:10031000FC01918D828D981761F0A28DAE0FBF2FD9
:10032000B11D5D968C91928D9F5F9F73928F90E02F
:1003300008958FEF9FEF0895FC01918D828D98179E
:1003400031F0828DE80FF11D858D90E008958FEFDB
:100350009FEF0895FC01918D228D892F90E0805CA4
:100360009F4F821B91098F739927089583EC91E029
:100370000E94AA0121E0892B09F420E0822F089530
:1003800080E090E0892B29F00E94B60181110C9445
:1003900000000895FC01A48DA80FB92FB11DA35A28
:1003A000BF4F2C91848D90E001968F739927848F95
:1003B000A689B7892C93A089B1898C9183708064B8
:1003C0008C93938D848D981306C00288F389E02D59
:1003D00080818F7D80830895EF92FF920F931F930A
:1003E000CF93DF93EC0181E0888F9B8D8C8D9813E8
:1003F0001AC0E889F989808185FF15C09FB7F894F4
:10040000EE89FF896083E889F9898081837080643F
:1004100080839FBF81E090E0DF91CF911F910F918A
:10042000FF90EF900895F62E0B8D10E00F5F1F4F99
:100430000F731127E02E8C8D8E110CC00FB607FCA8
:10044000FACFE889F989808185FFF5CFCE010E9436
:10045000CA01F1CFEB8DEC0FFD2FF11DE35AFF4FD9
:10046000F0829FB7F8940B8FEA89FB8980818062C4
:10047000CFCFCF93DF93EC01888D8823B9F0AA8981
:10048000BB89E889F9898C9185FD03C0808186FD4F
:100490000DC00FB607FCF7CF8C9185FFF2CF80819E
:1004A00085FFEDCFCE010E94CA01E9CFDF91CF9148
:1004B0000895CF92DF92EF92FF92CF93DF93EC01FA
:1004C000603282E07807CCF5653B710514F064EB8F
:1004D00070E0898128E830E0281B310987FD3395D9
:1004E000220F331F220F331F6901330FEE08FF085D
:1004F0008A8128E532E0281B310987FD3395220FD8
:10050000331F220F331F032E000C440B550B2C19E5
:100510003D094E095F09DB0177FF02C0B0E0A0E0B2
:100520000E94800824EB30E040E050E00E94560832
:10053000C20ED31EE41EF51EB601E881EC3070F544
:10054000298188E890E0821B910927FD9395880F07
:10055000991F880F991F681779077CF02A8188E511
:1005600092E0821B910927FD9395880F991F880FB0
:10057000991F681779070CF4CB010297880F991F10
:100580004FB7F8942E2F30E0F901EE0FFF1FE20F66
:10059000F31FE257FE4F928381834FBFDF91CF91CC
:1005A000FF90EF90DF90CF9008951F93CF93DF934C
:1005B000EC01162F88818C3008F04DC0862F0E94E8
:1005C00087008881282F30E0F901EE0FFF1FE20F2E
:1005D000F31FE257FE4F1F736081607C612B6083C5
:1005E00019821A822CE0622F0E94B908829FB00102
:1005F000112430E020E0AB01420F531FFA01EE0F4F
:10060000FF1FE40FF51FE257FE4F908196FD16C0C5
:100610002F5F3F4F2C30310571F781110FC01092C1
:10062000800082E080938100109285001092840007
:10063000B19A80916F00826080936F00E8818E2F65
:1006400090E0FC01EE0FFF1FE80FF91FE257FE4F8D
:100650008081806480838881DF91CF911F9108958C
:10066000FC0101900020E9F73197AF01481B590BBD
:10067000BC0183EC91E00C944C01CF93DF930E947A
:100680003003EC0182E191E00E9430038C0F9D1F4A
:10069000DF91CF9108958F929F92AF92BF92CF92A8
:1006A000DF92EF92FF920F931F93CF93DF93CDB71B
:1006B000DEB7A1970FB6F894DEBF0FBECDBF6C01B9
:1006C000990FEE08FF08F7FE47C06DE283EC91E05A
:1006D0000E94EC018C0122273327A9012C193D0926
:1006E0004E095F0919A2CE0181967C019AE0892EFC
:1006F000912CA12CB12CCA01B901A50194010E9431
:100700008808605DF70162937F012115310541057D
:10071000510589F790E080E0309719F0CF010E94F1
:100720003003080F191F82E191E00E943003800F0F
:10073000911FA1960FB6F894DEBF0FBECDBFDF911B
:10074000CF911F910F91FF90EF90DF90CF90BF90CE
:10075000AF909F908F900895A701960119A28E01E6
:100760000F5D1F4F8AE0C82ED12CE12CF12CCA015D
:10077000B901A70196010E948808605DF8016293A3
:100780008F01211531054105510589F7309729F071
:10079000CF010E9430038C01C6CF10E000E0C3CF30
:1007A0001F920F920FB60F9211242F933F938F93A6
:1007B0009F93AF93BF938091BB019091BC01A09197
:1007C000BD01B091BE013091BA0123E0230F2D3756
:1007D00058F50196A11DB11D2093BA018093BB016C
:1007E0009093BC01A093BD01B093BE018091BF0165
:1007F0009091C001A091C101B091C2010196A11DCB
:10080000B11D8093BF019093C001A093C101B0932B
:10081000C201BF91AF919F918F913F912F910F9006
:100820000FBE0F901F90189526E8230F0296A11D6A
:10083000B11DD2CF1F920F920FB60F9211242F939A
:100840003F934F935F936F937F938F939F93AF9358
:10085000BF93EF93FF9383EC91E00E94CA01FF9155
:10086000EF91BF91AF919F918F917F916F915F9128
:100870004F913F912F910F900FBE0F901F901895A1
:100880001F920F920FB60F9211242F938F939F9365
:10089000EF93FF93E091D301F091D4018081E09137
:1008A000D901F091DA0182FD1BC090818091DC01B9
:1008B0008F5F8F732091DD01821741F0E091DC01A1
:1008C000F0E0ED53FE4F958F8093DC01FF91EF91A7
:1008D0009F918F912F910F900FBE0F901F901895A1
:1008E0008081F4CF1F920F920FB60F9211242F9395
:1008F0003F934F935F936F937F938F939F93AF93A8
:10090000BF93CF93DF93EF93FF9380918C01C091BE
:100910008D01D0E087FF24C01092850010928400E2
:1009200080918C018F5F80938C0180918C01082EC7
:10093000000C990B8C179D0724F480918C018C304E
:10094000C4F18091840090918500049680349C4984
:1009500008F47AC08091840090918500049676C056
:1009600080918C01082E000C990B8C179D07C4F602
:10097000E0918C018E2FEE0F990BFC01EE0FFF1F03
:10098000E80FF91FE257FE4F808186FFC9CFE09143
:100990008C018E2FEE0F990BFC01EE0FFF1FE80F5D
:1009A000F91FE257FE4F808160E08F730E94A6001E
:1009B000B7CF2091840030918500E0918C018E2F7B
:1009C000EE0F990BFC01EE0FFF1FE80FF91FE25726
:1009D000FE4F81819281820F931F909389008093B3
:1009E0008800E0918C018E2FEE0F990BFC01EE0F29
:1009F000FF1FE80FF91FE257FE4F808186FF11C0ED
:100A0000E0918C018E2FEE0F990BFC01EE0FFF1F72
:100A1000E80FF91FE257FE4F808161E08F730E945B
:100A2000A600FF91EF91DF91CF91BF91AF919F9180
:100A30008F917F916F915F914F913F912F910F9087
:100A40000FBE0F901F90189580E49CE99093890049
:100A5000809388008FEF80938C01E3CFFC0190910D
:100A60008D019C3098F481E0890F80938D019083F3
:100A7000892F90E0FC01EE0FFF1FE80FF91FE257EE
:100A8000FE4F88EB9BE09283818308958FEF8083F4
:100A90000895E3ECF1E01382128288EE93E0A0E087
:100AA000B0E084839583A683B78384E091E091834B
:100AB000808385EC90E09587848784EC90E097872D
:100AC000868780EC90E0918B808B81EC90E0938B1B
:100AD000828B82EC90E0958B848B86EC90E0978BF8
:100AE000868B118E128E138E148E86E692E00E94F3
:100AF0002E0583E692E00E942E0580E692E00C949B
:100B00002E05789484B5826084BD84B5816084BDEF
:100B100085B5826085BD85B5816085BD80916E009B
:100B2000816080936E0010928100809181008260CC
:100B30008093810080918100816080938100809109
:100B400080008160809380008091B10084608093F8
:100B5000B1008091B00081608093B00080917A00F4
:100B6000846080937A0080917A00826080937A001A
:100B700080917A00816080937A0080917A00806809
:100B800080937A001092C10082E00E94870083E087
:100B90000E94870084E00E94870087E00E9487000F
:100BA00086E00E94870085E00E9487008DE00E9419
:100BB00087008CE00E9487008BE00E94870068E03D
:100BC00070E086E692E00E94D50270E060E086E682
:100BD00092E00E94590269E070E083E692E00E9490
:100BE000D50270E060E083E692E00E9459026AE07C
:100BF00070E080E692E00E94D50270E060E080E65E
:100C000092E00E945902E091D301F091D40182E078
:100C10008083E091CF01F091D0011082E091D10169
:100C2000F091D2018FEC80831092DB01E091D7012B
:100C3000F091D80186E08083E091D501F091D60152
:100C4000808180618083E091D501F091D60180811F
:100C500088608083E091D501F091D6018081806821
:100C60008083E091D501F091D60180818F7D8083D2
:100C700022E3222E312C38E3432E512C47E3642EFD
:100C8000712CC6E3D0E005E310E054E3E52EF12C2F
:100C900063E3C62ED12C81E3882E912C90E0A92EFF
:100CA00090E0B92E83EC91E00E94AA01892B09F40F
:100CB00070C083EC91E00E9488019093B901809309
:100CC000B80185E191E00E9430038091B8019091D4
:100CD000B9010E944B03E091B801F091B901F1977D
:100CE000E332F10508F055C0E858F94F0C94C508F7
:100CF0001C073D0754077F07AA07D50700082B08E4
:100D0000C906C906C906C906C906C906C906C9066B
:100D1000C906AD06C906C906C9069B06C906C906A5
:100D2000C906C906C906F706C906C906C906C9061D
:100D3000C906ED0601078DE191E00E943D0361E0E7
:100D400083E00E94A60060E084E00E94A60061E0CB
:100D500086E00E94A60060E011C08CE291E00E9453
:100D60003D0360E083E00E94A60061E084E00E9411
:100D7000A60060E086E00E94A60061E085E00E9497
:100D8000A60061E082E00E94A60061E087E00E9488
:100D9000A6006091B6017091B70186E692E00E94CC
:100DA00059026091B4017091B50183E692E00E940E
:100DB00059026091B2017091B30180E692E00E9405
:100DC0005902A114B10409F46DCF0E94B601882321
:100DD00009F461CF0E9400005ECF8CE391E00E9495
:100DE0003D0360E083E00E94A60061E0ADCF89E4AE
:100DF00091E00E943D0361E083E00E94A60060E074
:100E0000B5CF85E591E00E943D0360E082E00E945D
:100E1000A60060E087E00E94A60060E083E00E94F8
:100E2000A60060E084E00E94A60060E086E00E94E8
:100E3000A60060E085E0ABCF9092B9018092B80146
:100E400061E08CE00E94A60060E08BE00E94A600BA
:100E500061E08DE00E94A60083EC91E00E94880191
:100E6000C09751F760E08DE00E94A60060E08CE042
:100E70000E94A60060E08BE08ACF3092B9012092F8
:100E8000B80160E08CE00E94A60061E08BE00E9467
:100E9000A60061E08DE00E94A60083EC91E00E9434
:100EA0008801C09751F7DECFD092B901C092B80146
:100EB0008091B6019091B701843B9105CCF40196E5
:100EC0009093B7018093B60181E691E00E943003D0
:100ED0008091B6019091B7010E944B036091B601D9
:100EE0007091B70186E692E00E9459020E941701B4
:100EF00083EC91E00E948801C097B1F64ACFF0924E
:100F0000B901E092B8018091B6019091B70118162D
:100F10001906CCF401979093B7018093B60181E64E
:100F200091E00E9430038091B6019091B7010E9438
:100F30004B036091B6017091B70186E692E00E9482
:100F400059020E94170183EC91E00E948801C0972A
:100F5000B1F61FCF1093B9010093B8018091B4018D
:100F60009091B501843B9105CCF401969093B50125
:100F70008093B4018FE691E00E9430038091B40128
:100F80009091B5010E944B036091B4017091B5013D
:100F900083E692E00E9459020E94170183EC91E0DF
:100FA0000E948801C097B1F6F4CED093B901C093E6
:100FB000B8018091B4019091B50118161906CCF4CE
:100FC00001979093B5018093B4018FE691E00E9460
:100FD00030038091B4019091B5010E944B03609160
:100FE000B4017091B50183E692E00E9459020E941B
:100FF000170183EC91E00E948801C097B1F6C9CE39
:101000007092B9016092B8018091B2019091B301E0
:10101000843B9105CCF401969093B3018093B20187
:101020008DE791E00E9430038091B2019091B3016D
:101030000E944B036091B2017091B30180E692E08F
:101040000E9459020E94170183EC91E00E948801DE
:10105000C097B1F69ECE5092B9014092B8018091EE
:10106000B2019091B30118161906CCF40197909330
:10107000B3018093B2018DE791E00E94300380912B
:10108000B2019091B3010E944B036091B201709143
:10109000B30180E692E00E9459020E94170183EC9E
:1010A00091E00E948801C097B1F673CE052E97FBA0
:1010B0001EF400940E946D0857FD07D00E94880816
:1010C00007FC03D04EF40C946D0850954095309574
:1010D00021953F4F4F4F5F4F0895909580957095A4
:1010E00061957F4F8F4F9F4F08950E94AA08A59F3B
:1010F000900DB49F900DA49F800D911D1124089513
:10110000B7FF0C9475080E947508821B930B089515
:10111000A1E21A2EAA1BBB1BFD010DC0AA1FBB1FFB
:10112000EE1FFF1FA217B307E407F50720F0A21B6D
:10113000B30BE40BF50B661F771F881F991F1A94DA
:1011400069F760957095809590959B01AC01BD0104
:10115000CF010895A29FB001B39FC001A39F700D5E
:10116000811D1124911DB29F700D811D1124911DAF
:101170000895991B79E004C0991F961708F0961BF3
:10118000881F7A95C9F780950895EE0FFF1F059087
:10119000F491E02D0994F894FFCF00000000EC01D9
:1011A0004C0179013902AA0188019C010D0A004411
:1011B000617465203A20004D6F76696E6720466F36
:1011C0007277617264004D6F76696E672042616369
:1011D0006B77617264004D6F76696E672052696744
:1011E0006874004D6F76696E67204C6566740053B5
:1011F000746F70204D6F76696E6700536572766FFD
:10120000203120706F733A2000536572766F203260
:1012100020706F733A2000536572766F2033207010
:061220006F733A2000008C
:107E0000112484B714BE81FFF0D085E080938100F7
:107E100082E08093C00088E18093C10086E0809377
:107E2000C20080E18093C4008EE0C9D0259A86E02C
:107E300020E33CEF91E0309385002093840096BBD3
:107E4000B09BFECF1D9AA8958150A9F7CC24DD24C4
:107E500088248394B5E0AB2EA1E19A2EF3E0BF2EE7
:107E6000A2D0813461F49FD0082FAFD0023811F036
:107E7000013811F484E001C083E08DD089C08234E0
:107E800011F484E103C0853419F485E0A6D080C0E4
:107E9000853579F488D0E82EFF2485D0082F10E0AE
:107EA000102F00270E291F29000F111F8ED06801E7
:107EB0006FC0863521F484E090D080E0DECF843638
:107EC00009F040C070D06FD0082F6DD080E0C81688
:107ED00080E7D80618F4F601B7BEE895C0E0D1E017
:107EE00062D089930C17E1F7F0E0CF16F0E7DF06D8
:107EF00018F0F601B7BEE89568D007B600FCFDCFD4
:107F0000A601A0E0B1E02C9130E011968C91119780
:107F100090E0982F8827822B932B1296FA010C0160
:107F200087BEE89511244E5F5F4FF1E0A038BF0790
:107F300051F7F601A7BEE89507B600FCFDCF97BE46
:107F4000E89526C08437B1F42ED02DD0F82E2BD052
:107F50003CD0F601EF2C8F010F5F1F4F84911BD097
:107F6000EA94F801C1F70894C11CD11CFA94CF0C13
:107F7000D11C0EC0853739F428D08EE10CD085E9AC
:107F80000AD08FE07ACF813511F488E018D01DD067
:107F900080E101D065CF982F8091C00085FFFCCF94
:107FA0009093C60008958091C00087FFFCCF809118
:107FB000C00084FD01C0A8958091C6000895E0E648
:107FC000F0E098E1908380830895EDDF803219F02E
:107FD00088E0F5DFFFCF84E1DECF1F93182FE3DFCA
:107FE0001150E9F7F2DF1F91089580E0E8DFEE27F6
:047FF000FF270994CA
:027FFE00040479
:00000001FF
